{
  "_format": "hh-sol-artifact-1",
  "contractName": "TodoList",
  "sourceName": "contracts/TodoList.sol",
  "abi": [
    {
      "anonymous": false,
      "inputs": [
        {
          "indexed": true,
          "internalType": "uint256",
          "name": "id",
          "type": "uint256"
        },
        {
          "indexed": false,
          "internalType": "string",
          "name": "content",
          "type": "string"
        },
        {
          "indexed": false,
          "internalType": "uint256",
          "name": "dueDate",
          "type": "uint256"
        },
        {
          "indexed": true,
          "internalType": "address",
          "name": "owner",
          "type": "address"
        }
      ],
      "name": "TodoCreated",
      "type": "event"
    },
    {
      "anonymous": false,
      "inputs": [
        {
          "indexed": true,
          "internalType": "uint256",
          "name": "id",
          "type": "uint256"
        },
        {
          "indexed": true,
          "internalType": "address",
          "name": "owner",
          "type": "address"
        }
      ],
      "name": "TodoDeleted",
      "type": "event"
    },
    {
      "anonymous": false,
      "inputs": [
        {
          "indexed": true,
          "internalType": "uint256",
          "name": "id",
          "type": "uint256"
        },
        {
          "indexed": false,
          "internalType": "string",
          "name": "content",
          "type": "string"
        },
        {
          "indexed": false,
          "internalType": "bool",
          "name": "completed",
          "type": "bool"
        },
        {
          "indexed": false,
          "internalType": "uint256",
          "name": "dueDate",
          "type": "uint256"
        }
      ],
      "name": "TodoUpdated",
      "type": "event"
    },
    {
      "inputs": [
        {
          "internalType": "string",
          "name": "_content",
          "type": "string"
        },
        {
          "internalType": "uint256",
          "name": "_dueDate",
          "type": "uint256"
        }
      ],
      "name": "createTodo",
      "outputs": [],
      "stateMutability": "nonpayable",
      "type": "function"
    },
    {
      "inputs": [
        {
          "internalType": "uint256",
          "name": "_id",
          "type": "uint256"
        }
      ],
      "name": "deleteTodo",
      "outputs": [],
      "stateMutability": "nonpayable",
      "type": "function"
    },
    {
      "inputs": [
        {
          "internalType": "uint256",
          "name": "_id",
          "type": "uint256"
        }
      ],
      "name": "getTodo",
      "outputs": [
        {
          "components": [
            {
              "internalType": "uint256",
              "name": "id",
              "type": "uint256"
            },
            {
              "internalType": "string",
              "name": "content",
              "type": "string"
            },
            {
              "internalType": "bool",
              "name": "completed",
              "type": "bool"
            },
            {
              "internalType": "uint256",
              "name": "dueDate",
              "type": "uint256"
            },
            {
              "internalType": "address",
              "name": "owner",
              "type": "address"
            },
            {
              "internalType": "uint256",
              "name": "createdAt",
              "type": "uint256"
            }
          ],
          "internalType": "struct TodoList.Todo",
          "name": "",
          "type": "tuple"
        }
      ],
      "stateMutability": "view",
      "type": "function"
    },
    {
      "inputs": [
        {
          "internalType": "address",
          "name": "_user",
          "type": "address"
        }
      ],
      "name": "getUserTodoDetails",
      "outputs": [
        {
          "components": [
            {
              "internalType": "uint256",
              "name": "id",
              "type": "uint256"
            },
            {
              "internalType": "string",
              "name": "content",
              "type": "string"
            },
            {
              "internalType": "bool",
              "name": "completed",
              "type": "bool"
            },
            {
              "internalType": "uint256",
              "name": "dueDate",
              "type": "uint256"
            },
            {
              "internalType": "address",
              "name": "owner",
              "type": "address"
            },
            {
              "internalType": "uint256",
              "name": "createdAt",
              "type": "uint256"
            }
          ],
          "internalType": "struct TodoList.Todo[]",
          "name": "",
          "type": "tuple[]"
        }
      ],
      "stateMutability": "view",
      "type": "function"
    },
    {
      "inputs": [
        {
          "internalType": "address",
          "name": "_user",
          "type": "address"
        }
      ],
      "name": "getUserTodos",
      "outputs": [
        {
          "internalType": "uint256[]",
          "name": "",
          "type": "uint256[]"
        }
      ],
      "stateMutability": "view",
      "type": "function"
    },
    {
      "inputs": [],
      "name": "todoCount",
      "outputs": [
        {
          "internalType": "uint256",
          "name": "",
          "type": "uint256"
        }
      ],
      "stateMutability": "view",
      "type": "function"
    },
    {
      "inputs": [
        {
          "internalType": "uint256",
          "name": "",
          "type": "uint256"
        }
      ],
      "name": "todos",
      "outputs": [
        {
          "internalType": "uint256",
          "name": "id",
          "type": "uint256"
        },
        {
          "internalType": "string",
          "name": "content",
          "type": "string"
        },
        {
          "internalType": "bool",
          "name": "completed",
          "type": "bool"
        },
        {
          "internalType": "uint256",
          "name": "dueDate",
          "type": "uint256"
        },
        {
          "internalType": "address",
          "name": "owner",
          "type": "address"
        },
        {
          "internalType": "uint256",
          "name": "createdAt",
          "type": "uint256"
        }
      ],
      "stateMutability": "view",
      "type": "function"
    },
    {
      "inputs": [
        {
          "internalType": "uint256",
          "name": "_id",
          "type": "uint256"
        }
      ],
      "name": "toggleTodo",
      "outputs": [],
      "stateMutability": "nonpayable",
      "type": "function"
    },
    {
      "inputs": [
        {
          "internalType": "uint256",
          "name": "_id",
          "type": "uint256"
        },
        {
          "internalType": "string",
          "name": "_content",
          "type": "string"
        },
        {
          "internalType": "bool",
          "name": "_completed",
          "type": "bool"
        },
        {
          "internalType": "uint256",
          "name": "_dueDate",
          "type": "uint256"
        }
      ],
      "name": "updateTodo",
      "outputs": [],
      "stateMutability": "nonpayable",
      "type": "function"
    },
    {
      "inputs": [
        {
          "internalType": "address",
          "name": "",
          "type": "address"
        },
        {
          "internalType": "uint256",
          "name": "",
          "type": "uint256"
        }
      ],
      "name": "userTodos",
      "outputs": [
        {
          "internalType": "uint256",
          "name": "",
          "type": "uint256"
        }
      ],
      "stateMutability": "view",
      "type": "function"
    }
  ],
  "bytecode": "0x608060405234801561001057600080fd5b50611e04806100206000396000f3fe608060405234801561001057600080fd5b506004361061009e5760003560e01c8063dc00282c11610066578063dc00282c14610170578063dd68afb61461018c578063ece28c6c146101bc578063f35a7fc9146101d8578063fe0dee17146102085761009e565b80636e3c6738146100a3578063741993f1146100bf5780637e2bce31146100ef57806398ad7a7f1461010b578063bc8bc2b41461013b575b600080fd5b6100bd60048036038101906100b89190610ffb565b610226565b005b6100d960048036038101906100d49190611086565b6104e8565b6040516100e691906112c7565b60405180910390f35b6101096004803603810190610104919061144a565b610775565b005b610125600480360381019061012091906114cd565b6108aa565b604051610132919061151c565b60405180910390f35b61015560048036038101906101509190610ffb565b6108db565b6040516101679695949392919061159f565b60405180910390f35b61018a60048036038101906101859190610ffb565b6109cc565b005b6101a660048036038101906101a19190610ffb565b610b4b565b6040516101b39190611690565b60405180910390f35b6101d660048036038101906101d191906116b2565b610c98565b005b6101f260048036038101906101ed9190611086565b610e69565b6040516101ff91906117bd565b60405180910390f35b610210610f00565b60405161021d919061151c565b60405180910390f35b803373ffffffffffffffffffffffffffffffffffffffff1660008083815260200190815260200160002060040160009054906101000a900473ffffffffffffffffffffffffffffffffffffffff1673ffffffffffffffffffffffffffffffffffffffff16146102ca576040517f08c379a00000000000000000000000000000000000000000000000000000000081526004016102c19061182b565b60405180910390fd5b60008060008481526020019081526020016000206000015403610322576040517f08c379a000000000000000000000000000000000000000000000000000000000815260040161031990611897565b60405180910390fd5b6000600160003373ffffffffffffffffffffffffffffffffffffffff1673ffffffffffffffffffffffffffffffffffffffff168152602001908152602001600020905060005b81805490508110156104265783828281548110610388576103876118b7565b5b9060005260206000200154036104135781600183805490506103aa9190611915565b815481106103bb576103ba6118b7565b5b90600052602060002001548282815481106103d9576103d86118b7565b5b9060005260206000200181905550818054806103f8576103f7611949565b5b60019003818190600052602060002001600090559055610426565b808061041e90611978565b915050610368565b506000808481526020019081526020016000206000808201600090556001820160006104529190610f06565b6002820160006101000a81549060ff021916905560038201600090556004820160006101000a81549073ffffffffffffffffffffffffffffffffffffffff0219169055600582016000905550503373ffffffffffffffffffffffffffffffffffffffff16837f240eb6c41ab2c1d4565d3f6ea56f82da83bd83014d758763a7caa5eff3135ac860405160405180910390a3505050565b60606000600160008473ffffffffffffffffffffffffffffffffffffffff1673ffffffffffffffffffffffffffffffffffffffff16815260200190815260200160002080548060200260200160405190810160405280929190818152602001828054801561057557602002820191906000526020600020905b815481526020019060010190808311610561575b505050505090506000815167ffffffffffffffff811115610599576105986112f3565b5b6040519080825280602002602001820160405280156105d257816020015b6105bf610f46565b8152602001906001900390816105b75790505b50905060005b825181101561076a576000808483815181106105f7576105f66118b7565b5b602002602001015181526020019081526020016000206040518060c001604052908160008201548152602001600182018054610632906119ef565b80601f016020809104026020016040519081016040528092919081815260200182805461065e906119ef565b80156106ab5780601f10610680576101008083540402835291602001916106ab565b820191906000526020600020905b81548152906001019060200180831161068e57829003601f168201915b505050505081526020016002820160009054906101000a900460ff16151515158152602001600382015481526020016004820160009054906101000a900473ffffffffffffffffffffffffffffffffffffffff1673ffffffffffffffffffffffffffffffffffffffff1673ffffffffffffffffffffffffffffffffffffffff16815260200160058201548152505082828151811061074c5761074b6118b7565b5b6020026020010181905250808061076290611978565b9150506105d8565b508092505050919050565b833373ffffffffffffffffffffffffffffffffffffffff1660008083815260200190815260200160002060040160009054906101000a900473ffffffffffffffffffffffffffffffffffffffff1673ffffffffffffffffffffffffffffffffffffffff1614610819576040517f08c379a00000000000000000000000000000000000000000000000000000000081526004016108109061182b565b60405180910390fd5b60008060008781526020019081526020016000209050848160010190816108409190611bcc565b50838160020160006101000a81548160ff021916908315150217905550828160030181905550857f8cb6b5235743305c64052547ae794f2c331f4d8a8381b89429fe8bfdffb6299f86868660405161089a93929190611c9e565b60405180910390a2505050505050565b600160205281600052604060002081815481106108c657600080fd5b90600052602060002001600091509150505481565b6000602052806000526040600020600091509050806000015490806001018054610904906119ef565b80601f0160208091040260200160405190810160405280929190818152602001828054610930906119ef565b801561097d5780601f106109525761010080835404028352916020019161097d565b820191906000526020600020905b81548152906001019060200180831161096057829003601f168201915b5050505050908060020160009054906101000a900460ff16908060030154908060040160009054906101000a900473ffffffffffffffffffffffffffffffffffffffff16908060050154905086565b803373ffffffffffffffffffffffffffffffffffffffff1660008083815260200190815260200160002060040160009054906101000a900473ffffffffffffffffffffffffffffffffffffffff1673ffffffffffffffffffffffffffffffffffffffff1614610a70576040517f08c379a0000000000000000000000000000000000000000000000000000000008152600401610a679061182b565b60405180910390fd5b60008083815260200190815260200160002060020160009054906101000a900460ff161560008084815260200190815260200160002060020160006101000a81548160ff021916908315150217905550817f8cb6b5235743305c64052547ae794f2c331f4d8a8381b89429fe8bfdffb6299f60008085815260200190815260200160002060010160008086815260200190815260200160002060020160009054906101000a900460ff1660008087815260200190815260200160002060030154604051610b3f93929190611d60565b60405180910390a25050565b610b53610f46565b6000808381526020019081526020016000206040518060c001604052908160008201548152602001600182018054610b8a906119ef565b80601f0160208091040260200160405190810160405280929190818152602001828054610bb6906119ef565b8015610c035780601f10610bd857610100808354040283529160200191610c03565b820191906000526020600020905b815481529060010190602001808311610be657829003601f168201915b505050505081526020016002820160009054906101000a900460ff16151515158152602001600382015481526020016004820160009054906101000a900473ffffffffffffffffffffffffffffffffffffffff1673ffffffffffffffffffffffffffffffffffffffff1673ffffffffffffffffffffffffffffffffffffffff1681526020016005820154815250509050919050565b60026000815480929190610cab90611978565b91905055506040518060c0016040528060025481526020018381526020016000151581526020018281526020013373ffffffffffffffffffffffffffffffffffffffff168152602001428152506000806002548152602001908152602001600020600082015181600001556020820151816001019081610d2b9190611bcc565b5060408201518160020160006101000a81548160ff0219169083151502179055506060820151816003015560808201518160040160006101000a81548173ffffffffffffffffffffffffffffffffffffffff021916908373ffffffffffffffffffffffffffffffffffffffff16021790555060a08201518160050155905050600160003373ffffffffffffffffffffffffffffffffffffffff1673ffffffffffffffffffffffffffffffffffffffff16815260200190815260200160002060025490806001815401808255809150506001900390600052602060002001600090919091909150553373ffffffffffffffffffffffffffffffffffffffff166002547f526b4bfd36cad5ccf53d53910c7a232d2b6c713f5a83010d74aafa220497a48d8484604051610e5d929190611d9e565b60405180910390a35050565b6060600160008373ffffffffffffffffffffffffffffffffffffffff1673ffffffffffffffffffffffffffffffffffffffff168152602001908152602001600020805480602002602001604051908101604052809291908181526020018280548015610ef457602002820191906000526020600020905b815481526020019060010190808311610ee0575b50505050509050919050565b60025481565b508054610f12906119ef565b6000825580601f10610f245750610f43565b601f016020900490600052602060002090810190610f429190610f94565b5b50565b6040518060c00160405280600081526020016060815260200160001515815260200160008152602001600073ffffffffffffffffffffffffffffffffffffffff168152602001600081525090565b5b80821115610fad576000816000905550600101610f95565b5090565b6000604051905090565b600080fd5b600080fd5b6000819050919050565b610fd881610fc5565b8114610fe357600080fd5b50565b600081359050610ff581610fcf565b92915050565b60006020828403121561101157611010610fbb565b5b600061101f84828501610fe6565b91505092915050565b600073ffffffffffffffffffffffffffffffffffffffff82169050919050565b600061105382611028565b9050919050565b61106381611048565b811461106e57600080fd5b50565b6000813590506110808161105a565b92915050565b60006020828403121561109c5761109b610fbb565b5b60006110aa84828501611071565b91505092915050565b600081519050919050565b600082825260208201905092915050565b6000819050602082019050919050565b6110e881610fc5565b82525050565b600081519050919050565b600082825260208201905092915050565b60005b8381101561112857808201518184015260208101905061110d565b60008484015250505050565b6000601f19601f8301169050919050565b6000611150826110ee565b61115a81856110f9565b935061116a81856020860161110a565b61117381611134565b840191505092915050565b60008115159050919050565b6111938161117e565b82525050565b6111a281611048565b82525050565b600060c0830160008301516111c060008601826110df565b50602083015184820360208601526111d88282611145565b91505060408301516111ed604086018261118a565b50606083015161120060608601826110df565b5060808301516112136080860182611199565b5060a083015161122660a08601826110df565b508091505092915050565b600061123d83836111a8565b905092915050565b6000602082019050919050565b600061125d826110b3565b61126781856110be565b935083602082028501611279856110cf565b8060005b858110156112b557848403895281516112968582611231565b94506112a183611245565b925060208a0199505060018101905061127d565b50829750879550505050505092915050565b600060208201905081810360008301526112e18184611252565b905092915050565b600080fd5b600080fd5b7f4e487b7100000000000000000000000000000000000000000000000000000000600052604160045260246000fd5b61132b82611134565b810181811067ffffffffffffffff8211171561134a576113496112f3565b5b80604052505050565b600061135d610fb1565b90506113698282611322565b919050565b600067ffffffffffffffff821115611389576113886112f3565b5b61139282611134565b9050602081019050919050565b82818337600083830152505050565b60006113c16113bc8461136e565b611353565b9050828152602081018484840111156113dd576113dc6112ee565b5b6113e884828561139f565b509392505050565b600082601f830112611405576114046112e9565b5b81356114158482602086016113ae565b91505092915050565b6114278161117e565b811461143257600080fd5b50565b6000813590506114448161141e565b92915050565b6000806000806080858703121561146457611463610fbb565b5b600061147287828801610fe6565b945050602085013567ffffffffffffffff81111561149357611492610fc0565b5b61149f878288016113f0565b93505060406114b087828801611435565b92505060606114c187828801610fe6565b91505092959194509250565b600080604083850312156114e4576114e3610fbb565b5b60006114f285828601611071565b925050602061150385828601610fe6565b9150509250929050565b61151681610fc5565b82525050565b6000602082019050611531600083018461150d565b92915050565b600082825260208201905092915050565b6000611553826110ee565b61155d8185611537565b935061156d81856020860161110a565b61157681611134565b840191505092915050565b61158a8161117e565b82525050565b61159981611048565b82525050565b600060c0820190506115b4600083018961150d565b81810360208301526115c68188611548565b90506115d56040830187611581565b6115e2606083018661150d565b6115ef6080830185611590565b6115fc60a083018461150d565b979650505050505050565b600060c08301600083015161161f60008601826110df565b50602083015184820360208601526116378282611145565b915050604083015161164c604086018261118a565b50606083015161165f60608601826110df565b5060808301516116726080860182611199565b5060a083015161168560a08601826110df565b508091505092915050565b600060208201905081810360008301526116aa8184611607565b905092915050565b600080604083850312156116c9576116c8610fbb565b5b600083013567ffffffffffffffff8111156116e7576116e6610fc0565b5b6116f3858286016113f0565b925050602061170485828601610fe6565b9150509250929050565b600081519050919050565b600082825260208201905092915050565b6000819050602082019050919050565b600061174683836110df565b60208301905092915050565b6000602082019050919050565b600061176a8261170e565b6117748185611719565b935061177f8361172a565b8060005b838110156117b0578151611797888261173a565b97506117a283611752565b925050600181019050611783565b5085935050505092915050565b600060208201905081810360008301526117d7818461175f565b905092915050565b7f4e6f7420746865206f776e6572206f66207468697320746f646f000000000000600082015250565b6000611815601a83611537565b9150611820826117df565b602082019050919050565b6000602082019050818103600083015261184481611808565b9050919050565b7f546f646f20646f6573206e6f7420657869737400000000000000000000000000600082015250565b6000611881601383611537565b915061188c8261184b565b602082019050919050565b600060208201905081810360008301526118b081611874565b9050919050565b7f4e487b7100000000000000000000000000000000000000000000000000000000600052603260045260246000fd5b7f4e487b7100000000000000000000000000000000000000000000000000000000600052601160045260246000fd5b600061192082610fc5565b915061192b83610fc5565b9250828203905081811115611943576119426118e6565b5b92915050565b7f4e487b7100000000000000000000000000000000000000000000000000000000600052603160045260246000fd5b600061198382610fc5565b91507fffffffffffffffffffffffffffffffffffffffffffffffffffffffffffffffff82036119b5576119b46118e6565b5b600182019050919050565b7f4e487b7100000000000000000000000000000000000000000000000000000000600052602260045260246000fd5b60006002820490506001821680611a0757607f821691505b602082108103611a1a57611a196119c0565b5b50919050565b60008190508160005260206000209050919050565b60006020601f8301049050919050565b600082821b905092915050565b600060088302611a827fffffffffffffffffffffffffffffffffffffffffffffffffffffffffffffffff82611a45565b611a8c8683611a45565b95508019841693508086168417925050509392505050565b6000819050919050565b6000611ac9611ac4611abf84610fc5565b611aa4565b610fc5565b9050919050565b6000819050919050565b611ae383611aae565b611af7611aef82611ad0565b848454611a52565b825550505050565b600090565b611b0c611aff565b611b17818484611ada565b505050565b5b81811015611b3b57611b30600082611b04565b600181019050611b1d565b5050565b601f821115611b8057611b5181611a20565b611b5a84611a35565b81016020851015611b69578190505b611b7d611b7585611a35565b830182611b1c565b50505b505050565b600082821c905092915050565b6000611ba360001984600802611b85565b1980831691505092915050565b6000611bbc8383611b92565b9150826002028217905092915050565b611bd5826110ee565b67ffffffffffffffff811115611bee57611bed6112f3565b5b611bf882546119ef565b611c03828285611b3f565b600060209050601f831160018114611c365760008415611c24578287015190505b611c2e8582611bb0565b865550611c96565b601f198416611c4486611a20565b60005b82811015611c6c57848901518255600182019150602085019450602081019050611c47565b86831015611c895784890151611c85601f891682611b92565b8355505b6001600288020188555050505b505050505050565b60006060820190508181036000830152611cb88186611548565b9050611cc76020830185611581565b611cd4604083018461150d565b949350505050565b60008154611ce9816119ef565b611cf38186611537565b94506001821660008114611d0e5760018114611d2457611d57565b60ff198316865281151560200286019350611d57565b611d2d85611a20565b60005b83811015611d4f57815481890152600182019150602081019050611d30565b808801955050505b50505092915050565b60006060820190508181036000830152611d7a8186611cdc565b9050611d896020830185611581565b611d96604083018461150d565b949350505050565b60006040820190508181036000830152611db88185611548565b9050611dc7602083018461150d565b939250505056fea26469706673582212203fdda0f20a295723d48f10d89bbafc7bc6503fdde8540c0aca25c506a7fd20f464736f6c63430008130033",
  "linkReferences": {},
  "deployedLinkReferences": {}
}